{
  "contractName": "Exchange",
  "abi": [
    {
      "inputs": [
        {
          "internalType": "address",
          "name": "_feeAccount",
          "type": "address"
        },
        {
          "internalType": "uint256",
          "name": "_feePercent",
          "type": "uint256"
        }
      ],
      "stateMutability": "nonpayable",
      "type": "constructor"
    },
    {
      "anonymous": false,
      "inputs": [
        {
          "indexed": false,
          "internalType": "address",
          "name": "token",
          "type": "address"
        },
        {
          "indexed": false,
          "internalType": "address",
          "name": "user",
          "type": "address"
        },
        {
          "indexed": false,
          "internalType": "uint256",
          "name": "amount",
          "type": "uint256"
        },
        {
          "indexed": false,
          "internalType": "uint256",
          "name": "balance",
          "type": "uint256"
        }
      ],
      "name": "Deposit",
      "type": "event"
    },
    {
      "inputs": [],
      "name": "feeAccount",
      "outputs": [
        {
          "internalType": "address",
          "name": "",
          "type": "address"
        }
      ],
      "stateMutability": "view",
      "type": "function",
      "constant": true
    },
    {
      "inputs": [
        {
          "internalType": "address",
          "name": "",
          "type": "address"
        },
        {
          "internalType": "address",
          "name": "",
          "type": "address"
        }
      ],
      "name": "tokens",
      "outputs": [
        {
          "internalType": "uint256",
          "name": "",
          "type": "uint256"
        }
      ],
      "stateMutability": "view",
      "type": "function",
      "constant": true
    },
    {
      "inputs": [],
      "name": "depositEther",
      "outputs": [],
      "stateMutability": "payable",
      "type": "function",
      "payable": true
    },
    {
      "inputs": [
        {
          "internalType": "address",
          "name": "_token",
          "type": "address"
        },
        {
          "internalType": "uint256",
          "name": "_amount",
          "type": "uint256"
        }
      ],
      "name": "depositToken",
      "outputs": [],
      "stateMutability": "nonpayable",
      "type": "function"
    }
  ],
  "bytecode": "0x608060405234801561001057600080fd5b506040516109de3803806109de83398181016040528101906100329190610119565b816000806101000a81548173ffffffffffffffffffffffffffffffffffffffff021916908373ffffffffffffffffffffffffffffffffffffffff160217905550806001819055505050610159565b600080fd5b600073ffffffffffffffffffffffffffffffffffffffff82169050919050565b60006100b082610085565b9050919050565b6100c0816100a5565b81146100cb57600080fd5b50565b6000815190506100dd816100b7565b92915050565b6000819050919050565b6100f6816100e3565b811461010157600080fd5b50565b600081519050610113816100ed565b92915050565b600080604083850312156101305761012f610080565b5b600061013e858286016100ce565b925050602061014f85828601610104565b9150509250929050565b610876806101686000396000f3fe60806040526004361061003f5760003560e01c8063338b5dea14610044578063508493bc1461006d57806365e17c9d146100aa57806398ea5fca146100d5575b600080fd5b34801561005057600080fd5b5061006b60048036038101906100669190610628565b6100df565b005b34801561007957600080fd5b50610094600480360381019061008f9190610668565b610365565b6040516100a191906106b7565b60405180910390f35b3480156100b657600080fd5b506100bf61038a565b6040516100cc91906106e1565b60405180910390f35b6100dd6103ae565b005b600073ffffffffffffffffffffffffffffffffffffffff168273ffffffffffffffffffffffffffffffffffffffff160361011857600080fd5b8173ffffffffffffffffffffffffffffffffffffffff166323b872dd3330846040518463ffffffff1660e01b8152600401610155939291906106fc565b6020604051808303816000875af1158015610174573d6000803e3d6000fd5b505050506040513d601f19601f82011682018060405250810190610198919061076b565b5061022881600260008573ffffffffffffffffffffffffffffffffffffffff1673ffffffffffffffffffffffffffffffffffffffff16815260200190815260200160002060003373ffffffffffffffffffffffffffffffffffffffff1673ffffffffffffffffffffffffffffffffffffffff1681526020019081526020016000205461057990919063ffffffff16565b600260008473ffffffffffffffffffffffffffffffffffffffff1673ffffffffffffffffffffffffffffffffffffffff16815260200190815260200160002060003373ffffffffffffffffffffffffffffffffffffffff1673ffffffffffffffffffffffffffffffffffffffff168152602001908152602001600020819055507fdcbc1c05240f31ff3ad067ef1ee35ce4997762752e3a095284754544f4c709d7823383600260008773ffffffffffffffffffffffffffffffffffffffff1673ffffffffffffffffffffffffffffffffffffffff16815260200190815260200160002060003373ffffffffffffffffffffffffffffffffffffffff1673ffffffffffffffffffffffffffffffffffffffff168152602001908152602001600020546040516103599493929190610798565b60405180910390a15050565b6002602052816000526040600020602052806000526040600020600091509150505481565b60008054906101000a900473ffffffffffffffffffffffffffffffffffffffff1681565b61043d34600260008073ffffffffffffffffffffffffffffffffffffffff1673ffffffffffffffffffffffffffffffffffffffff16815260200190815260200160002060003373ffffffffffffffffffffffffffffffffffffffff1673ffffffffffffffffffffffffffffffffffffffff1681526020019081526020016000205461057990919063ffffffff16565b600260008073ffffffffffffffffffffffffffffffffffffffff1673ffffffffffffffffffffffffffffffffffffffff16815260200190815260200160002060003373ffffffffffffffffffffffffffffffffffffffff1673ffffffffffffffffffffffffffffffffffffffff168152602001908152602001600020819055507fdcbc1c05240f31ff3ad067ef1ee35ce4997762752e3a095284754544f4c709d760003334600260008073ffffffffffffffffffffffffffffffffffffffff1673ffffffffffffffffffffffffffffffffffffffff16815260200190815260200160002060003373ffffffffffffffffffffffffffffffffffffffff1673ffffffffffffffffffffffffffffffffffffffff1681526020019081526020016000205460405161056f9493929190610798565b60405180910390a1565b60008183610587919061080c565b905092915050565b600080fd5b600073ffffffffffffffffffffffffffffffffffffffff82169050919050565b60006105bf82610594565b9050919050565b6105cf816105b4565b81146105da57600080fd5b50565b6000813590506105ec816105c6565b92915050565b6000819050919050565b610605816105f2565b811461061057600080fd5b50565b600081359050610622816105fc565b92915050565b6000806040838503121561063f5761063e61058f565b5b600061064d858286016105dd565b925050602061065e85828601610613565b9150509250929050565b6000806040838503121561067f5761067e61058f565b5b600061068d858286016105dd565b925050602061069e858286016105dd565b9150509250929050565b6106b1816105f2565b82525050565b60006020820190506106cc60008301846106a8565b92915050565b6106db816105b4565b82525050565b60006020820190506106f660008301846106d2565b92915050565b600060608201905061071160008301866106d2565b61071e60208301856106d2565b61072b60408301846106a8565b949350505050565b60008115159050919050565b61074881610733565b811461075357600080fd5b50565b6000815190506107658161073f565b92915050565b6000602082840312156107815761078061058f565b5b600061078f84828501610756565b91505092915050565b60006080820190506107ad60008301876106d2565b6107ba60208301866106d2565b6107c760408301856106a8565b6107d460608301846106a8565b95945050505050565b7f4e487b7100000000000000000000000000000000000000000000000000000000600052601160045260246000fd5b6000610817826105f2565b9150610822836105f2565b925082820190508082111561083a576108396107dd565b5b9291505056fea2646970667358221220df23b0cfb647a5abcf680ba5c29a8febd7d2db2946e36c9b1d689c5749228c3764736f6c63430008130033",
  "immutableReferences": {},
  "source": "// SPDX-License-Identifier: GPL-3.0\r\n// MIT ... c, python, typescript\r\n\r\npragma solidity >=0.4.16 <0.9.0; // solidity\r\nimport \"@openzeppelin/contracts/utils/math/SafeMath.sol\";\r\nimport \"./CelineToken.sol\";\r\n\r\ncontract Exchange {\r\n    using SafeMath for uint256; // uint256sub,add \r\n\r\n    // \r\n    address public feeAccount;\r\n    // \r\n    uint256 feePercent;\r\n    // 0\r\n    address constant ETHER = address(0);\r\n    // tokens\r\n    mapping(address => mapping(address => uint256)) public tokens;\r\n\r\n    // {\r\n    //     \"\":{\r\n    //         \"A\"100,\r\n    //         \"B\"200,\r\n    //     },\r\n    //     \"CLT\":{\r\n    //         \"A\"200,\r\n    //         \"B\"300,\r\n    //     },\r\n    //     \"\":{\r\n    //         \"A\"200,\r\n    //         \"B\"500,\r\n    //     }\r\n    // }\r\n\r\n    // \r\n    constructor(address _feeAccount, uint256 _feePercent) {\r\n        feeAccount = _feeAccount;\r\n        feePercent = _feePercent;\r\n    }\r\n\r\n    // ()\r\n    event Deposit(address token, address user, uint256 amount, uint256 balance);\r\n\r\n    //  ,\r\n    function depositEther() public payable {\r\n        // msg.sender\r\n        // msg.value\r\n        tokens[ETHER][msg.sender] = tokens[ETHER][msg.sender].add(msg.value);\r\n        emit Deposit(ETHER, msg.sender, msg.value, tokens[ETHER][msg.sender]);\r\n    }\r\n\r\n    //  \r\n    function depositToken(address _token, uint256 _amount) public {\r\n        require(_token != ETHER);\r\n        // \r\n        CelineToken(_token).transferFrom(msg.sender, address(this), _amount);\r\n        // \r\n        tokens[_token][msg.sender] = tokens[_token][msg.sender].add(_amount);\r\n        // \r\n        emit Deposit(_token, msg.sender, _amount, tokens[_token][msg.sender]);\r\n    }\r\n}\r\n",
  "sourcePath": "C:\\Users\\CelineZ\\OneDrive - M. Moser Associates Limited\\Desktop\\Other\\Tech\\web3\\web3\\code\\contracts\\Exchange.sol",
  "compiler": {
    "name": "solc",
    "version": "0.8.19+commit.7dd6d404.Emscripten.clang"
  },
  "schemaVersion": "3.4.13",
  "updatedAt": "2023-05-25T09:56:48.667Z",
  "networkType": "ethereum",
  "devdoc": {
    "kind": "dev",
    "methods": {},
    "version": 1
  },
  "userdoc": {
    "kind": "user",
    "methods": {},
    "version": 1
  }
}