{
  "contractName": "Exchange",
  "abi": [
    {
      "inputs": [
        {
          "internalType": "address",
          "name": "_feeAccount",
          "type": "address"
        },
        {
          "internalType": "uint256",
          "name": "_feePercent",
          "type": "uint256"
        }
      ],
      "stateMutability": "nonpayable",
      "type": "constructor"
    },
    {
      "anonymous": false,
      "inputs": [
        {
          "indexed": false,
          "internalType": "address",
          "name": "token",
          "type": "address"
        },
        {
          "indexed": false,
          "internalType": "address",
          "name": "user",
          "type": "address"
        },
        {
          "indexed": false,
          "internalType": "uint256",
          "name": "amount",
          "type": "uint256"
        },
        {
          "indexed": false,
          "internalType": "uint256",
          "name": "balance",
          "type": "uint256"
        }
      ],
      "name": "Deposit",
      "type": "event"
    },
    {
      "anonymous": false,
      "inputs": [
        {
          "indexed": false,
          "internalType": "address",
          "name": "token",
          "type": "address"
        },
        {
          "indexed": false,
          "internalType": "address",
          "name": "user",
          "type": "address"
        },
        {
          "indexed": false,
          "internalType": "uint256",
          "name": "amount",
          "type": "uint256"
        },
        {
          "indexed": false,
          "internalType": "uint256",
          "name": "balance",
          "type": "uint256"
        }
      ],
      "name": "WithDraw",
      "type": "event"
    },
    {
      "inputs": [],
      "name": "feeAccount",
      "outputs": [
        {
          "internalType": "address",
          "name": "",
          "type": "address"
        }
      ],
      "stateMutability": "view",
      "type": "function",
      "constant": true
    },
    {
      "inputs": [
        {
          "internalType": "address",
          "name": "",
          "type": "address"
        },
        {
          "internalType": "address",
          "name": "",
          "type": "address"
        }
      ],
      "name": "tokens",
      "outputs": [
        {
          "internalType": "uint256",
          "name": "",
          "type": "uint256"
        }
      ],
      "stateMutability": "view",
      "type": "function",
      "constant": true
    },
    {
      "inputs": [],
      "name": "depositEther",
      "outputs": [],
      "stateMutability": "payable",
      "type": "function",
      "payable": true
    },
    {
      "inputs": [
        {
          "internalType": "address",
          "name": "_token",
          "type": "address"
        },
        {
          "internalType": "uint256",
          "name": "_amount",
          "type": "uint256"
        }
      ],
      "name": "depositToken",
      "outputs": [],
      "stateMutability": "nonpayable",
      "type": "function"
    },
    {
      "inputs": [
        {
          "internalType": "uint256",
          "name": "_amount",
          "type": "uint256"
        }
      ],
      "name": "withdrawEther",
      "outputs": [],
      "stateMutability": "nonpayable",
      "type": "function"
    },
    {
      "inputs": [
        {
          "internalType": "address",
          "name": "_token",
          "type": "address"
        },
        {
          "internalType": "uint256",
          "name": "_amount",
          "type": "uint256"
        }
      ],
      "name": "withdrawToken",
      "outputs": [],
      "stateMutability": "nonpayable",
      "type": "function"
    }
  ],
  "bytecode": "0x60806040523480156200001157600080fd5b50604051620010b9380380620010b983398181016040528101906200003791906200012b565b816000806101000a81548173ffffffffffffffffffffffffffffffffffffffff021916908373ffffffffffffffffffffffffffffffffffffffff16021790555080600181905550505062000172565b600080fd5b600073ffffffffffffffffffffffffffffffffffffffff82169050919050565b6000620000b8826200008b565b9050919050565b620000ca81620000ab565b8114620000d657600080fd5b50565b600081519050620000ea81620000bf565b92915050565b6000819050919050565b6200010581620000f0565b81146200011157600080fd5b50565b6000815190506200012581620000fa565b92915050565b6000806040838503121562000145576200014462000086565b5b60006200015585828601620000d9565b9250506020620001688582860162000114565b9150509250929050565b610f3780620001826000396000f3fe6080604052600436106100555760003560e01c8063338b5dea1461005a5780633bed33ce14610083578063508493bc146100ac57806365e17c9d146100e957806398ea5fca146101145780639e281a981461011e575b600080fd5b34801561006657600080fd5b50610081600480360381019061007c9190610c5f565b610147565b005b34801561008f57600080fd5b506100aa60048036038101906100a59190610c9f565b6103d5565b005b3480156100b857600080fd5b506100d360048036038101906100ce9190610ccc565b610671565b6040516100e09190610d1b565b60405180910390f35b3480156100f557600080fd5b506100fe610696565b60405161010b9190610d45565b60405180910390f35b61011c6106ba565b005b34801561012a57600080fd5b5061014560048036038101906101409190610c5f565b610885565b005b600073ffffffffffffffffffffffffffffffffffffffff168273ffffffffffffffffffffffffffffffffffffffff160361018057600080fd5b8173ffffffffffffffffffffffffffffffffffffffff166323b872dd3330846040518463ffffffff1660e01b81526004016101bd93929190610d60565b6020604051808303816000875af11580156101dc573d6000803e3d6000fd5b505050506040513d601f19601f820116820180604052508101906102009190610dcf565b61020957600080fd5b61029881600260008573ffffffffffffffffffffffffffffffffffffffff1673ffffffffffffffffffffffffffffffffffffffff16815260200190815260200160002060003373ffffffffffffffffffffffffffffffffffffffff1673ffffffffffffffffffffffffffffffffffffffff16815260200190815260200160002054610b9a90919063ffffffff16565b600260008473ffffffffffffffffffffffffffffffffffffffff1673ffffffffffffffffffffffffffffffffffffffff16815260200190815260200160002060003373ffffffffffffffffffffffffffffffffffffffff1673ffffffffffffffffffffffffffffffffffffffff168152602001908152602001600020819055507fdcbc1c05240f31ff3ad067ef1ee35ce4997762752e3a095284754544f4c709d7823383600260008773ffffffffffffffffffffffffffffffffffffffff1673ffffffffffffffffffffffffffffffffffffffff16815260200190815260200160002060003373ffffffffffffffffffffffffffffffffffffffff1673ffffffffffffffffffffffffffffffffffffffff168152602001908152602001600020546040516103c99493929190610dfc565b60405180910390a15050565b80600260008073ffffffffffffffffffffffffffffffffffffffff1673ffffffffffffffffffffffffffffffffffffffff16815260200190815260200160002060003373ffffffffffffffffffffffffffffffffffffffff1673ffffffffffffffffffffffffffffffffffffffff16815260200190815260200160002054101561045e57600080fd5b6104ed81600260008073ffffffffffffffffffffffffffffffffffffffff1673ffffffffffffffffffffffffffffffffffffffff16815260200190815260200160002060003373ffffffffffffffffffffffffffffffffffffffff1673ffffffffffffffffffffffffffffffffffffffff16815260200190815260200160002054610bb090919063ffffffff16565b600260008073ffffffffffffffffffffffffffffffffffffffff1673ffffffffffffffffffffffffffffffffffffffff16815260200190815260200160002060003373ffffffffffffffffffffffffffffffffffffffff1673ffffffffffffffffffffffffffffffffffffffff168152602001908152602001600020819055503373ffffffffffffffffffffffffffffffffffffffff166108fc829081150290604051600060405180830381858888f193505050501580156105b3573d6000803e3d6000fd5b507f2ffdfede8e3142dc22c86f615731d1d79115cf0652b6880e40eb6ef76ed86da260003383600260008073ffffffffffffffffffffffffffffffffffffffff1673ffffffffffffffffffffffffffffffffffffffff16815260200190815260200160002060003373ffffffffffffffffffffffffffffffffffffffff1673ffffffffffffffffffffffffffffffffffffffff168152602001908152602001600020546040516106669493929190610dfc565b60405180910390a150565b6002602052816000526040600020602052806000526040600020600091509150505481565b60008054906101000a900473ffffffffffffffffffffffffffffffffffffffff1681565b61074934600260008073ffffffffffffffffffffffffffffffffffffffff1673ffffffffffffffffffffffffffffffffffffffff16815260200190815260200160002060003373ffffffffffffffffffffffffffffffffffffffff1673ffffffffffffffffffffffffffffffffffffffff16815260200190815260200160002054610b9a90919063ffffffff16565b600260008073ffffffffffffffffffffffffffffffffffffffff1673ffffffffffffffffffffffffffffffffffffffff16815260200190815260200160002060003373ffffffffffffffffffffffffffffffffffffffff1673ffffffffffffffffffffffffffffffffffffffff168152602001908152602001600020819055507fdcbc1c05240f31ff3ad067ef1ee35ce4997762752e3a095284754544f4c709d760003334600260008073ffffffffffffffffffffffffffffffffffffffff1673ffffffffffffffffffffffffffffffffffffffff16815260200190815260200160002060003373ffffffffffffffffffffffffffffffffffffffff1673ffffffffffffffffffffffffffffffffffffffff1681526020019081526020016000205460405161087b9493929190610dfc565b60405180910390a1565b600073ffffffffffffffffffffffffffffffffffffffff168273ffffffffffffffffffffffffffffffffffffffff16036108be57600080fd5b80600260008473ffffffffffffffffffffffffffffffffffffffff1673ffffffffffffffffffffffffffffffffffffffff16815260200190815260200160002060003373ffffffffffffffffffffffffffffffffffffffff1673ffffffffffffffffffffffffffffffffffffffff16815260200190815260200160002054101561094757600080fd5b6109d681600260008573ffffffffffffffffffffffffffffffffffffffff1673ffffffffffffffffffffffffffffffffffffffff16815260200190815260200160002060003373ffffffffffffffffffffffffffffffffffffffff1673ffffffffffffffffffffffffffffffffffffffff16815260200190815260200160002054610bb090919063ffffffff16565b600260008473ffffffffffffffffffffffffffffffffffffffff1673ffffffffffffffffffffffffffffffffffffffff16815260200190815260200160002060003373ffffffffffffffffffffffffffffffffffffffff1673ffffffffffffffffffffffffffffffffffffffff168152602001908152602001600020819055508173ffffffffffffffffffffffffffffffffffffffff1663a9059cbb33836040518363ffffffff1660e01b8152600401610a91929190610e41565b6020604051808303816000875af1158015610ab0573d6000803e3d6000fd5b505050506040513d601f19601f82011682018060405250810190610ad49190610dcf565b610add57600080fd5b7f2ffdfede8e3142dc22c86f615731d1d79115cf0652b6880e40eb6ef76ed86da2823383600260008773ffffffffffffffffffffffffffffffffffffffff1673ffffffffffffffffffffffffffffffffffffffff16815260200190815260200160002060003373ffffffffffffffffffffffffffffffffffffffff1673ffffffffffffffffffffffffffffffffffffffff16815260200190815260200160002054604051610b8e9493929190610dfc565b60405180910390a15050565b60008183610ba89190610e99565b905092915050565b60008183610bbe9190610ecd565b905092915050565b600080fd5b600073ffffffffffffffffffffffffffffffffffffffff82169050919050565b6000610bf682610bcb565b9050919050565b610c0681610beb565b8114610c1157600080fd5b50565b600081359050610c2381610bfd565b92915050565b6000819050919050565b610c3c81610c29565b8114610c4757600080fd5b50565b600081359050610c5981610c33565b92915050565b60008060408385031215610c7657610c75610bc6565b5b6000610c8485828601610c14565b9250506020610c9585828601610c4a565b9150509250929050565b600060208284031215610cb557610cb4610bc6565b5b6000610cc384828501610c4a565b91505092915050565b60008060408385031215610ce357610ce2610bc6565b5b6000610cf185828601610c14565b9250506020610d0285828601610c14565b9150509250929050565b610d1581610c29565b82525050565b6000602082019050610d306000830184610d0c565b92915050565b610d3f81610beb565b82525050565b6000602082019050610d5a6000830184610d36565b92915050565b6000606082019050610d756000830186610d36565b610d826020830185610d36565b610d8f6040830184610d0c565b949350505050565b60008115159050919050565b610dac81610d97565b8114610db757600080fd5b50565b600081519050610dc981610da3565b92915050565b600060208284031215610de557610de4610bc6565b5b6000610df384828501610dba565b91505092915050565b6000608082019050610e116000830187610d36565b610e1e6020830186610d36565b610e2b6040830185610d0c565b610e386060830184610d0c565b95945050505050565b6000604082019050610e566000830185610d36565b610e636020830184610d0c565b9392505050565b7f4e487b7100000000000000000000000000000000000000000000000000000000600052601160045260246000fd5b6000610ea482610c29565b9150610eaf83610c29565b9250828201905080821115610ec757610ec6610e6a565b5b92915050565b6000610ed882610c29565b9150610ee383610c29565b9250828203905081811115610efb57610efa610e6a565b5b9291505056fea2646970667358221220afb4208e3137c018463bfd92ec4ad024c0a7cf01c5244e645232be840760ea1864736f6c63430008130033",
  "immutableReferences": {},
  "source": "// SPDX-License-Identifier: GPL-3.0\r\n// MIT ... c, python, typescript\r\n\r\npragma solidity >=0.4.16 <0.9.0; // solidity\r\nimport \"@openzeppelin/contracts/utils/math/SafeMath.sol\";\r\nimport \"./CelineToken.sol\";\r\n\r\ncontract Exchange {\r\n    using SafeMath for uint256; // uint256sub,add \r\n\r\n    // \r\n    address public feeAccount;\r\n    // \r\n    uint256 feePercent;\r\n    // 0\r\n    address constant ETHER = address(0);\r\n    // tokens\r\n    mapping(address => mapping(address => uint256)) public tokens;\r\n\r\n    // {\r\n    //     \"\":{\r\n    //         \"A\"100,\r\n    //         \"B\"200,\r\n    //     },\r\n    //     \"CLT\":{\r\n    //         \"A\"200,\r\n    //         \"B\"300,\r\n    //     },\r\n    //     \"\":{\r\n    //         \"A\"200,\r\n    //         \"B\"500,\r\n    //     }\r\n    // }\r\n\r\n    // \r\n    constructor(address _feeAccount, uint256 _feePercent) {\r\n        feeAccount = _feeAccount;\r\n        feePercent = _feePercent;\r\n    }\r\n\r\n    // ()\r\n    event Deposit(address token, address user, uint256 amount, uint256 balance);\r\n    // \r\n    event WithDraw(\r\n        address token,\r\n        address user,\r\n        uint256 amount,\r\n        uint256 balance\r\n    );\r\n\r\n    //  ,\r\n    function depositEther() public payable {\r\n        // msg.sender\r\n        // msg.value\r\n        tokens[ETHER][msg.sender] = tokens[ETHER][msg.sender].add(msg.value);\r\n        emit Deposit(ETHER, msg.sender, msg.value, tokens[ETHER][msg.sender]);\r\n    }\r\n\r\n    //  \r\n    function depositToken(address _token, uint256 _amount) public {\r\n        require(_token != ETHER);\r\n        // \r\n        require(\r\n            CelineToken(_token).transferFrom(msg.sender, address(this), _amount)\r\n        );\r\n        // \r\n        tokens[_token][msg.sender] = tokens[_token][msg.sender].add(_amount);\r\n        // \r\n        emit Deposit(_token, msg.sender, _amount, tokens[_token][msg.sender]);\r\n    }\r\n\r\n    // \r\n    function withdrawEther(uint256 _amount) public {\r\n        // \r\n        require(tokens[ETHER][msg.sender] >= _amount);\r\n        // \r\n        tokens[ETHER][msg.sender] = tokens[ETHER][msg.sender].sub(_amount);\r\n        // payable \r\n        payable(msg.sender).transfer(_amount);\r\n        // \r\n        emit WithDraw(ETHER, msg.sender, _amount, tokens[ETHER][msg.sender]);\r\n    }\r\n\r\n    // KWT\r\n    function withdrawToken(address _token, uint256 _amount) public {\r\n        // \r\n        require(_token != ETHER);\r\n        // \r\n        require(tokens[_token][msg.sender] >= _amount);\r\n        // \r\n        tokens[_token][msg.sender] = tokens[_token][msg.sender].sub(_amount);\r\n        // \r\n        require(CelineToken(_token).transfer(msg.sender, _amount));\r\n        // \r\n        emit WithDraw(_token, msg.sender, _amount, tokens[_token][msg.sender]);\r\n    }\r\n}\r\n",
  "sourcePath": "C:\\Users\\CelineZ\\OneDrive - M. Moser Associates Limited\\Desktop\\Other\\Tech\\web3\\web3\\code\\contracts\\Exchange.sol",
  "compiler": {
    "name": "solc",
    "version": "0.8.19+commit.7dd6d404.Emscripten.clang"
  },
  "schemaVersion": "3.4.13",
  "updatedAt": "2023-05-26T03:59:35.935Z",
  "networkType": "ethereum",
  "devdoc": {
    "kind": "dev",
    "methods": {},
    "version": 1
  },
  "userdoc": {
    "kind": "user",
    "methods": {},
    "version": 1
  }
}