{
  "contractName": "StaffStorage",
  "abi": [
    {
      "inputs": [
        {
          "internalType": "string",
          "name": "_name",
          "type": "string"
        },
        {
          "internalType": "uint256",
          "name": "_age",
          "type": "uint256"
        }
      ],
      "name": "setData",
      "outputs": [],
      "stateMutability": "nonpayable",
      "type": "function"
    },
    {
      "inputs": [
        {
          "internalType": "uint256",
          "name": "x",
          "type": "uint256"
        },
        {
          "internalType": "uint256",
          "name": "y",
          "type": "uint256"
        }
      ],
      "name": "test",
      "outputs": [
        {
          "internalType": "uint256",
          "name": "",
          "type": "uint256"
        }
      ],
      "stateMutability": "pure",
      "type": "function"
    },
    {
      "inputs": [],
      "name": "getData",
      "outputs": [
        {
          "internalType": "string",
          "name": "",
          "type": "string"
        },
        {
          "internalType": "uint256",
          "name": "",
          "type": "uint256"
        }
      ],
      "stateMutability": "view",
      "type": "function"
    }
  ],
  "bytecode": "0x608060405234801561001057600080fd5b5061081e806100206000396000f3fe608060405234801561001057600080fd5b506004361061005e576000357c0100000000000000000000000000000000000000000000000000000000900480633bc5de3014610063578063af22068e14610082578063eb8ac9211461009e575b600080fd5b61006b6100ce565b604051610079929190610245565b60405180910390f35b61009c600480360381019061009791906103ea565b61016b565b005b6100b860048036038101906100b39190610446565b610186565b6040516100c59190610486565b60405180910390f35b6060600060016000548180546100e3906104d0565b80601f016020809104026020016040519081016040528092919081815260200182805461010f906104d0565b801561015c5780601f106101315761010080835404028352916020019161015c565b820191906000526020600020905b81548152906001019060200180831161013f57829003601f168201915b50505050509150915091509091565b816001908161017a91906106b3565b50806000819055505050565b6000818361019491906107b4565b905092915050565b600081519050919050565b600082825260208201905092915050565b60005b838110156101d65780820151818401526020810190506101bb565b60008484015250505050565b6000601f19601f8301169050919050565b60006101fe8261019c565b61020881856101a7565b93506102188185602086016101b8565b610221816101e2565b840191505092915050565b6000819050919050565b61023f8161022c565b82525050565b6000604082019050818103600083015261025f81856101f3565b905061026e6020830184610236565b9392505050565b6000604051905090565b600080fd5b600080fd5b600080fd5b600080fd5b7f4e487b7100000000000000000000000000000000000000000000000000000000600052604160045260246000fd5b6102cb826101e2565b810181811067ffffffffffffffff821117156102ea576102e9610293565b5b80604052505050565b60006102fd610275565b905061030982826102c2565b919050565b600067ffffffffffffffff82111561032957610328610293565b5b610332826101e2565b9050602081019050919050565b82818337600083830152505050565b600061036161035c8461030e565b6102f3565b90508281526020810184848401111561037d5761037c61028e565b5b61038884828561033f565b509392505050565b600082601f8301126103a5576103a4610289565b5b81356103b584826020860161034e565b91505092915050565b6103c78161022c565b81146103d257600080fd5b50565b6000813590506103e4816103be565b92915050565b600080604083850312156104015761040061027f565b5b600083013567ffffffffffffffff81111561041f5761041e610284565b5b61042b85828601610390565b925050602061043c858286016103d5565b9150509250929050565b6000806040838503121561045d5761045c61027f565b5b600061046b858286016103d5565b925050602061047c858286016103d5565b9150509250929050565b600060208201905061049b6000830184610236565b92915050565b7f4e487b7100000000000000000000000000000000000000000000000000000000600052602260045260246000fd5b600060028204905060018216806104e857607f821691505b6020821081036104fb576104fa6104a1565b5b50919050565b60008190508160005260206000209050919050565b60006020601f8301049050919050565b60008160020a8302905092915050565b6000600883026105667fffffffffffffffffffffffffffffffffffffffffffffffffffffffffffffffff82610526565b6105708683610526565b95508019841693508086168417925050509392505050565b6000819050919050565b60006105ad6105a86105a38461022c565b610588565b61022c565b9050919050565b6000819050919050565b6105c783610592565b6105db6105d3826105b4565b848454610536565b825550505050565b600090565b6105f06105e3565b6105fb8184846105be565b505050565b5b8181101561061f576106146000826105e8565b600181019050610601565b5050565b601f8211156106645761063581610501565b61063e84610516565b8101602085101561064d578190505b61066161065985610516565b830182610600565b50505b505050565b60008160020a8304905092915050565b600061068a60001984600802610669565b1980831691505092915050565b60006106a38383610679565b9150826002028217905092915050565b6106bc8261019c565b67ffffffffffffffff8111156106d5576106d4610293565b5b6106df82546104d0565b6106ea828285610623565b600060209050601f83116001811461071d576000841561070b578287015190505b6107158582610697565b86555061077d565b601f19841661072b86610501565b60005b828110156107535784890151825560018201915060208501945060208101905061072e565b86831015610770578489015161076c601f891682610679565b8355505b6001600288020188555050505b505050505050565b7f4e487b7100000000000000000000000000000000000000000000000000000000600052601160045260246000fd5b60006107bf8261022c565b91506107ca8361022c565b92508282019050808211156107e2576107e1610785565b5b9291505056fea2646970667358221220ad8eb5ca1c5c9b99bae303005064b1263b9c57068e1dcdde073302f43a119f6064736f6c63430008130033",
  "immutableReferences": {},
  "source": "// \r\n// MIT ... c, python, typescript\r\npragma solidity >=0.4.16 <0.9.0; // solidity\r\n\r\ncontract StaffStorage {\r\n    //  username, age\r\n    uint age;\r\n    string name;\r\n\r\n    // public,private,internal,external \r\n    function setData(string memory _name, uint _age) public {\r\n        name = _name;\r\n        age = _age;\r\n    }\r\n\r\n    function test(uint x, uint y) public pure returns (uint) {\r\n        return x + y;\r\n    }\r\n\r\n    function getData() public view returns (string memory, uint) {\r\n        return (name, age);\r\n    }\r\n}\r\n",
  "sourcePath": "C:\\Users\\CelineZ\\OneDrive - M. Moser Associates Limited\\Desktop\\Other\\Tech\\web3\\web3\\code\\contracts\\StaffStorage.sol",
  "compiler": {
    "name": "solc",
    "version": "0.8.19+commit.7dd6d404.Emscripten.clang"
  },
  "schemaVersion": "3.4.13",
  "updatedAt": "2023-05-16T09:55:40.099Z",
  "devdoc": {
    "kind": "dev",
    "methods": {},
    "version": 1
  },
  "userdoc": {
    "kind": "user",
    "methods": {},
    "version": 1
  }
}