{
  "contractName": "StaffListStorage",
  "abi": [
    {
      "inputs": [
        {
          "internalType": "uint256",
          "name": "",
          "type": "uint256"
        }
      ],
      "name": "StaffList",
      "outputs": [
        {
          "internalType": "uint256",
          "name": "id",
          "type": "uint256"
        },
        {
          "internalType": "string",
          "name": "name",
          "type": "string"
        },
        {
          "internalType": "uint256",
          "name": "age",
          "type": "uint256"
        }
      ],
      "stateMutability": "view",
      "type": "function",
      "constant": true
    },
    {
      "inputs": [
        {
          "internalType": "string",
          "name": "_name",
          "type": "string"
        },
        {
          "internalType": "uint256",
          "name": "_age",
          "type": "uint256"
        }
      ],
      "name": "addList",
      "outputs": [
        {
          "internalType": "uint256",
          "name": "",
          "type": "uint256"
        }
      ],
      "stateMutability": "nonpayable",
      "type": "function"
    },
    {
      "inputs": [],
      "name": "getList",
      "outputs": [
        {
          "components": [
            {
              "internalType": "uint256",
              "name": "id",
              "type": "uint256"
            },
            {
              "internalType": "string",
              "name": "name",
              "type": "string"
            },
            {
              "internalType": "uint256",
              "name": "age",
              "type": "uint256"
            }
          ],
          "internalType": "struct StaffListStorage.Staff[]",
          "name": "",
          "type": "tuple[]"
        }
      ],
      "stateMutability": "view",
      "type": "function",
      "constant": true
    }
  ],
  "bytecode": "0x608060405234801561001057600080fd5b50610b34806100206000396000f3fe608060405234801561001057600080fd5b50600436106100415760003560e01c80635a50e382146100465780636b29d35f14610078578063942b765a146100a8575b600080fd5b610060600480360381019061005b919061037a565b6100c6565b60405161006f93929190610446565b60405180910390f35b610092600480360381019061008d91906105b9565b610188565b60405161009f9190610615565b60405180910390f35b6100b0610226565b6040516100bd919061079b565b60405180910390f35b600081815481106100d657600080fd5b90600052602060002090600302016000915090508060000154908060010180546100ff906107ec565b80601f016020809104026020016040519081016040528092919081815260200182805461012b906107ec565b80156101785780601f1061014d57610100808354040283529160200191610178565b820191906000526020600020905b81548152906001019060200180831161015b57829003601f168201915b5050505050908060020154905083565b600080600080549050905060006001826101a2919061084c565b9050600060405180606001604052808381526020018781526020018681525090806001815401808255809150506001900390600052602060002090600302016000909190919091506000820151816000015560208201518160010190816102099190610a2c565b506040820151816002015550506000805490509250505092915050565b6060600080805480602002602001604051908101604052809291908181526020016000905b82821015610323578382906000526020600020906003020160405180606001604052908160008201548152602001600182018054610288906107ec565b80601f01602080910402602001604051908101604052809291908181526020018280546102b4906107ec565b80156103015780601f106102d657610100808354040283529160200191610301565b820191906000526020600020905b8154815290600101906020018083116102e457829003601f168201915b505050505081526020016002820154815250508152602001906001019061024b565b5050505090508091505090565b6000604051905090565b600080fd5b600080fd5b6000819050919050565b61035781610344565b811461036257600080fd5b50565b6000813590506103748161034e565b92915050565b6000602082840312156103905761038f61033a565b5b600061039e84828501610365565b91505092915050565b6103b081610344565b82525050565b600081519050919050565b600082825260208201905092915050565b60005b838110156103f05780820151818401526020810190506103d5565b60008484015250505050565b6000601f19601f8301169050919050565b6000610418826103b6565b61042281856103c1565b93506104328185602086016103d2565b61043b816103fc565b840191505092915050565b600060608201905061045b60008301866103a7565b818103602083015261046d818561040d565b905061047c60408301846103a7565b949350505050565b600080fd5b600080fd5b7f4e487b7100000000000000000000000000000000000000000000000000000000600052604160045260246000fd5b6104c6826103fc565b810181811067ffffffffffffffff821117156104e5576104e461048e565b5b80604052505050565b60006104f8610330565b905061050482826104bd565b919050565b600067ffffffffffffffff8211156105245761052361048e565b5b61052d826103fc565b9050602081019050919050565b82818337600083830152505050565b600061055c61055784610509565b6104ee565b90508281526020810184848401111561057857610577610489565b5b61058384828561053a565b509392505050565b600082601f8301126105a05761059f610484565b5b81356105b0848260208601610549565b91505092915050565b600080604083850312156105d0576105cf61033a565b5b600083013567ffffffffffffffff8111156105ee576105ed61033f565b5b6105fa8582860161058b565b925050602061060b85828601610365565b9150509250929050565b600060208201905061062a60008301846103a7565b92915050565b600081519050919050565b600082825260208201905092915050565b6000819050602082019050919050565b61066581610344565b82525050565b600082825260208201905092915050565b6000610687826103b6565b610691818561066b565b93506106a18185602086016103d2565b6106aa816103fc565b840191505092915050565b60006060830160008301516106cd600086018261065c565b50602083015184820360208601526106e5828261067c565b91505060408301516106fa604086018261065c565b508091505092915050565b600061071183836106b5565b905092915050565b6000602082019050919050565b600061073182610630565b61073b818561063b565b93508360208202850161074d8561064c565b8060005b85811015610789578484038952815161076a8582610705565b945061077583610719565b925060208a01995050600181019050610751565b50829750879550505050505092915050565b600060208201905081810360008301526107b58184610726565b905092915050565b7f4e487b7100000000000000000000000000000000000000000000000000000000600052602260045260246000fd5b6000600282049050600182168061080457607f821691505b602082108103610817576108166107bd565b5b50919050565b7f4e487b7100000000000000000000000000000000000000000000000000000000600052601160045260246000fd5b600061085782610344565b915061086283610344565b925082820190508082111561087a5761087961081d565b5b92915050565b60008190508160005260206000209050919050565b60006020601f8301049050919050565b600082821b905092915050565b6000600883026108e27fffffffffffffffffffffffffffffffffffffffffffffffffffffffffffffffff826108a5565b6108ec86836108a5565b95508019841693508086168417925050509392505050565b6000819050919050565b600061092961092461091f84610344565b610904565b610344565b9050919050565b6000819050919050565b6109438361090e565b61095761094f82610930565b8484546108b2565b825550505050565b600090565b61096c61095f565b61097781848461093a565b505050565b5b8181101561099b57610990600082610964565b60018101905061097d565b5050565b601f8211156109e0576109b181610880565b6109ba84610895565b810160208510156109c9578190505b6109dd6109d585610895565b83018261097c565b50505b505050565b600082821c905092915050565b6000610a03600019846008026109e5565b1980831691505092915050565b6000610a1c83836109f2565b9150826002028217905092915050565b610a35826103b6565b67ffffffffffffffff811115610a4e57610a4d61048e565b5b610a5882546107ec565b610a6382828561099f565b600060209050601f831160018114610a965760008415610a84578287015190505b610a8e8582610a10565b865550610af6565b601f198416610aa486610880565b60005b82811015610acc57848901518255600182019150602085019450602081019050610aa7565b86831015610ae95784890151610ae5601f8916826109f2565b8355505b6001600288020188555050505b50505050505056fea2646970667358221220d41259e57f1cc4abf14f63c30bfadb2103b0178385aa4a80a4d2acdc9fd0ecc964736f6c63430008130033",
  "immutableReferences": {},
  "source": "// \r\n// MIT ... c, python, typescript\r\npragma solidity >=0.4.16 <0.9.0; // solidity\r\n\r\ncontract StaffListStorage {\r\n    // c\r\n    struct Staff {\r\n        uint id;\r\n        string name;\r\n        uint age;\r\n    }\r\n\r\n    // []\r\n    Staff[] public StaffList; // getter()\r\n\r\n    // memory gas\r\n    // public,private,internal,external \r\n    function addList(string memory _name, uint _age) public returns (uint) {\r\n        uint count = StaffList.length;\r\n        uint index = count + 1;\r\n        StaffList.push(Staff(index, _name, _age));\r\n        return StaffList.length;\r\n    }\r\n\r\n    // view \r\n    function getList() public view returns (Staff[] memory) {\r\n        Staff[] memory list = StaffList;\r\n        return list;\r\n    }\r\n}\r\n",
  "sourcePath": "C:\\Users\\CelineZ\\OneDrive - M. Moser Associates Limited\\Desktop\\Other\\Tech\\web3\\web3\\code\\contracts\\StaffListStorage.sol",
  "compiler": {
    "name": "solc",
    "version": "0.8.19+commit.7dd6d404.Emscripten.clang"
  },
  "schemaVersion": "3.4.13",
  "updatedAt": "2023-05-18T03:52:52.727Z",
  "networkType": "ethereum",
  "devdoc": {
    "kind": "dev",
    "methods": {},
    "version": 1
  },
  "userdoc": {
    "kind": "user",
    "methods": {},
    "version": 1
  }
}