{
  "contractName": "StaffStorage",
  "abi": [
    {
      "inputs": [],
      "name": "age",
      "outputs": [
        {
          "internalType": "uint256",
          "name": "",
          "type": "uint256"
        }
      ],
      "stateMutability": "view",
      "type": "function",
      "constant": true
    },
    {
      "inputs": [],
      "name": "name",
      "outputs": [
        {
          "internalType": "string",
          "name": "",
          "type": "string"
        }
      ],
      "stateMutability": "view",
      "type": "function",
      "constant": true
    },
    {
      "inputs": [
        {
          "internalType": "string",
          "name": "_name",
          "type": "string"
        },
        {
          "internalType": "uint256",
          "name": "_age",
          "type": "uint256"
        }
      ],
      "name": "setData",
      "outputs": [],
      "stateMutability": "nonpayable",
      "type": "function"
    },
    {
      "inputs": [
        {
          "internalType": "uint256",
          "name": "x",
          "type": "uint256"
        },
        {
          "internalType": "uint256",
          "name": "y",
          "type": "uint256"
        }
      ],
      "name": "test",
      "outputs": [
        {
          "internalType": "uint256",
          "name": "",
          "type": "uint256"
        }
      ],
      "stateMutability": "pure",
      "type": "function",
      "constant": true
    },
    {
      "inputs": [],
      "name": "getData",
      "outputs": [
        {
          "internalType": "string",
          "name": "",
          "type": "string"
        },
        {
          "internalType": "uint256",
          "name": "",
          "type": "uint256"
        }
      ],
      "stateMutability": "view",
      "type": "function",
      "constant": true
    }
  ],
  "bytecode": "0x608060405234801561001057600080fd5b50610926806100206000396000f3fe608060405234801561001057600080fd5b5060043610610074576000357c01000000000000000000000000000000000000000000000000000000009004806306fdde0314610079578063262a9dff146100975780633bc5de30146100b5578063af22068e146100d4578063eb8ac921146100f0575b600080fd5b610081610120565b60405161008e9190610312565b60405180910390f35b61009f6101ae565b6040516100ac919061034d565b60405180910390f35b6100bd6101b4565b6040516100cb929190610368565b60405180910390f35b6100ee60048036038101906100e9919061050d565b610251565b005b61010a60048036038101906101059190610569565b61026c565b604051610117919061034d565b60405180910390f35b6001805461012d906105d8565b80601f0160208091040260200160405190810160405280929190818152602001828054610159906105d8565b80156101a65780601f1061017b576101008083540402835291602001916101a6565b820191906000526020600020905b81548152906001019060200180831161018957829003601f168201915b505050505081565b60005481565b6060600060016000548180546101c9906105d8565b80601f01602080910402602001604051908101604052809291908181526020018280546101f5906105d8565b80156102425780601f1061021757610100808354040283529160200191610242565b820191906000526020600020905b81548152906001019060200180831161022557829003601f168201915b50505050509150915091509091565b816001908161026091906107bb565b50806000819055505050565b6000818361027a91906108bc565b905092915050565b600081519050919050565b600082825260208201905092915050565b60005b838110156102bc5780820151818401526020810190506102a1565b60008484015250505050565b6000601f19601f8301169050919050565b60006102e482610282565b6102ee818561028d565b93506102fe81856020860161029e565b610307816102c8565b840191505092915050565b6000602082019050818103600083015261032c81846102d9565b905092915050565b6000819050919050565b61034781610334565b82525050565b6000602082019050610362600083018461033e565b92915050565b6000604082019050818103600083015261038281856102d9565b9050610391602083018461033e565b9392505050565b6000604051905090565b600080fd5b600080fd5b600080fd5b600080fd5b7f4e487b7100000000000000000000000000000000000000000000000000000000600052604160045260246000fd5b6103ee826102c8565b810181811067ffffffffffffffff8211171561040d5761040c6103b6565b5b80604052505050565b6000610420610398565b905061042c82826103e5565b919050565b600067ffffffffffffffff82111561044c5761044b6103b6565b5b610455826102c8565b9050602081019050919050565b82818337600083830152505050565b600061048461047f84610431565b610416565b9050828152602081018484840111156104a05761049f6103b1565b5b6104ab848285610462565b509392505050565b600082601f8301126104c8576104c76103ac565b5b81356104d8848260208601610471565b91505092915050565b6104ea81610334565b81146104f557600080fd5b50565b600081359050610507816104e1565b92915050565b60008060408385031215610524576105236103a2565b5b600083013567ffffffffffffffff811115610542576105416103a7565b5b61054e858286016104b3565b925050602061055f858286016104f8565b9150509250929050565b600080604083850312156105805761057f6103a2565b5b600061058e858286016104f8565b925050602061059f858286016104f8565b9150509250929050565b7f4e487b7100000000000000000000000000000000000000000000000000000000600052602260045260246000fd5b600060028204905060018216806105f057607f821691505b602082108103610603576106026105a9565b5b50919050565b60008190508160005260206000209050919050565b60006020601f8301049050919050565b60008160020a8302905092915050565b60006008830261066e7fffffffffffffffffffffffffffffffffffffffffffffffffffffffffffffffff8261062e565b610678868361062e565b95508019841693508086168417925050509392505050565b6000819050919050565b60006106b56106b06106ab84610334565b610690565b610334565b9050919050565b6000819050919050565b6106cf8361069a565b6106e36106db826106bc565b84845461063e565b825550505050565b600090565b6106f86106eb565b6107038184846106c6565b505050565b5b818110156107275761071c6000826106f0565b600181019050610709565b5050565b601f82111561076c5761073d81610609565b6107468461061e565b81016020851015610755578190505b6107696107618561061e565b830182610708565b50505b505050565b60008160020a8304905092915050565b600061079260001984600802610771565b1980831691505092915050565b60006107ab8383610781565b9150826002028217905092915050565b6107c482610282565b67ffffffffffffffff8111156107dd576107dc6103b6565b5b6107e782546105d8565b6107f282828561072b565b600060209050601f8311600181146108255760008415610813578287015190505b61081d858261079f565b865550610885565b601f19841661083386610609565b60005b8281101561085b57848901518255600182019150602085019450602081019050610836565b868310156108785784890151610874601f891682610781565b8355505b6001600288020188555050505b505050505050565b7f4e487b7100000000000000000000000000000000000000000000000000000000600052601160045260246000fd5b60006108c782610334565b91506108d283610334565b92508282019050808211156108ea576108e961088d565b5b9291505056fea26469706673582212200d4ab2480dd8137322ab1461b5fc9def6068ddbacd98c8bc935daca8febe377664736f6c63430008130033",
  "immutableReferences": {},
  "source": "// \r\n// MIT ... c, python, typescript\r\npragma solidity >=0.4.16 <0.9.0; // solidity\r\n\r\ncontract StaffStorage {\r\n    //  username, age\r\n    uint public age;\r\n    string public name;\r\n\r\n    // storage gas\r\n\r\n    // memory gas\r\n    // public,private,internal,external \r\n    function setData(string memory _name, uint _age) public {\r\n        name = _name;\r\n        age = _age;\r\n    }\r\n\r\n    // pure \r\n    function test(uint x, uint y) public pure returns (uint) {\r\n        return x + y;\r\n    }\r\n\r\n    // gas\r\n    // view \r\n    function getData() public view returns (string memory, uint) {\r\n        return (name, age);\r\n    }\r\n}\r\n",
  "sourcePath": "C:\\Users\\CelineZ\\OneDrive - M. Moser Associates Limited\\Desktop\\Other\\Tech\\web3\\web3\\code\\contracts\\StaffStorage.sol",
  "compiler": {
    "name": "solc",
    "version": "0.8.19+commit.7dd6d404.Emscripten.clang"
  },
  "schemaVersion": "3.4.13",
  "updatedAt": "2023-05-18T02:58:46.649Z",
  "networkType": "ethereum",
  "devdoc": {
    "kind": "dev",
    "methods": {},
    "version": 1
  },
  "userdoc": {
    "kind": "user",
    "methods": {},
    "version": 1
  }
}