{
  "contractName": "StaffStorage",
  "abi": [
    {
      "inputs": [],
      "name": "age",
      "outputs": [
        {
          "internalType": "uint256",
          "name": "",
          "type": "uint256"
        }
      ],
      "stateMutability": "view",
      "type": "function"
    },
    {
      "inputs": [],
      "name": "name",
      "outputs": [
        {
          "internalType": "string",
          "name": "",
          "type": "string"
        }
      ],
      "stateMutability": "view",
      "type": "function"
    },
    {
      "inputs": [
        {
          "internalType": "string",
          "name": "_name",
          "type": "string"
        },
        {
          "internalType": "uint256",
          "name": "_age",
          "type": "uint256"
        }
      ],
      "name": "setData",
      "outputs": [],
      "stateMutability": "nonpayable",
      "type": "function"
    },
    {
      "inputs": [
        {
          "internalType": "uint256",
          "name": "x",
          "type": "uint256"
        },
        {
          "internalType": "uint256",
          "name": "y",
          "type": "uint256"
        }
      ],
      "name": "test",
      "outputs": [
        {
          "internalType": "uint256",
          "name": "",
          "type": "uint256"
        }
      ],
      "stateMutability": "pure",
      "type": "function"
    },
    {
      "inputs": [],
      "name": "getData",
      "outputs": [
        {
          "internalType": "string",
          "name": "",
          "type": "string"
        },
        {
          "internalType": "uint256",
          "name": "",
          "type": "uint256"
        }
      ],
      "stateMutability": "view",
      "type": "function"
    }
  ],
  "bytecode": "0x608060405234801561001057600080fd5b50610903806100206000396000f3fe608060405234801561001057600080fd5b50600436106100575760003560e01c806306fdde031461005c578063262a9dff1461007a5780633bc5de3014610098578063af22068e146100b7578063eb8ac921146100d3575b600080fd5b610064610103565b60405161007191906102f5565b60405180910390f35b610082610191565b60405161008f9190610330565b60405180910390f35b6100a0610197565b6040516100ae92919061034b565b60405180910390f35b6100d160048036038101906100cc91906104f0565b610234565b005b6100ed60048036038101906100e8919061054c565b61024f565b6040516100fa9190610330565b60405180910390f35b60018054610110906105bb565b80601f016020809104026020016040519081016040528092919081815260200182805461013c906105bb565b80156101895780601f1061015e57610100808354040283529160200191610189565b820191906000526020600020905b81548152906001019060200180831161016c57829003601f168201915b505050505081565b60005481565b6060600060016000548180546101ac906105bb565b80601f01602080910402602001604051908101604052809291908181526020018280546101d8906105bb565b80156102255780601f106101fa57610100808354040283529160200191610225565b820191906000526020600020905b81548152906001019060200180831161020857829003601f168201915b50505050509150915091509091565b81600190816102439190610798565b50806000819055505050565b6000818361025d9190610899565b905092915050565b600081519050919050565b600082825260208201905092915050565b60005b8381101561029f578082015181840152602081019050610284565b60008484015250505050565b6000601f19601f8301169050919050565b60006102c782610265565b6102d18185610270565b93506102e1818560208601610281565b6102ea816102ab565b840191505092915050565b6000602082019050818103600083015261030f81846102bc565b905092915050565b6000819050919050565b61032a81610317565b82525050565b60006020820190506103456000830184610321565b92915050565b6000604082019050818103600083015261036581856102bc565b90506103746020830184610321565b9392505050565b6000604051905090565b600080fd5b600080fd5b600080fd5b600080fd5b7f4e487b7100000000000000000000000000000000000000000000000000000000600052604160045260246000fd5b6103d1826102ab565b810181811067ffffffffffffffff821117156103f0576103ef610399565b5b80604052505050565b600061040361037b565b905061040f82826103c8565b919050565b600067ffffffffffffffff82111561042f5761042e610399565b5b610438826102ab565b9050602081019050919050565b82818337600083830152505050565b600061046761046284610414565b6103f9565b90508281526020810184848401111561048357610482610394565b5b61048e848285610445565b509392505050565b600082601f8301126104ab576104aa61038f565b5b81356104bb848260208601610454565b91505092915050565b6104cd81610317565b81146104d857600080fd5b50565b6000813590506104ea816104c4565b92915050565b6000806040838503121561050757610506610385565b5b600083013567ffffffffffffffff8111156105255761052461038a565b5b61053185828601610496565b9250506020610542858286016104db565b9150509250929050565b6000806040838503121561056357610562610385565b5b6000610571858286016104db565b9250506020610582858286016104db565b9150509250929050565b7f4e487b7100000000000000000000000000000000000000000000000000000000600052602260045260246000fd5b600060028204905060018216806105d357607f821691505b6020821081036105e6576105e561058c565b5b50919050565b60008190508160005260206000209050919050565b60006020601f8301049050919050565b600082821b905092915050565b60006008830261064e7fffffffffffffffffffffffffffffffffffffffffffffffffffffffffffffffff82610611565b6106588683610611565b95508019841693508086168417925050509392505050565b6000819050919050565b600061069561069061068b84610317565b610670565b610317565b9050919050565b6000819050919050565b6106af8361067a565b6106c36106bb8261069c565b84845461061e565b825550505050565b600090565b6106d86106cb565b6106e38184846106a6565b505050565b5b81811015610707576106fc6000826106d0565b6001810190506106e9565b5050565b601f82111561074c5761071d816105ec565b61072684610601565b81016020851015610735578190505b61074961074185610601565b8301826106e8565b50505b505050565b600082821c905092915050565b600061076f60001984600802610751565b1980831691505092915050565b6000610788838361075e565b9150826002028217905092915050565b6107a182610265565b67ffffffffffffffff8111156107ba576107b9610399565b5b6107c482546105bb565b6107cf82828561070b565b600060209050601f83116001811461080257600084156107f0578287015190505b6107fa858261077c565b865550610862565b601f198416610810866105ec565b60005b8281101561083857848901518255600182019150602085019450602081019050610813565b868310156108555784890151610851601f89168261075e565b8355505b6001600288020188555050505b505050505050565b7f4e487b7100000000000000000000000000000000000000000000000000000000600052601160045260246000fd5b60006108a482610317565b91506108af83610317565b92508282019050808211156108c7576108c661086a565b5b9291505056fea2646970667358221220efc8ba1ed3b08e7e9f79f77aea107c5ca22ec20f4cd17dfe7be8714b297ac04f64736f6c63430008130033",
  "immutableReferences": {},
  "source": "// \r\n// SPDX-License-Identifier: GPL-3.0\r\n// MIT ... c, python, typescript\r\npragma solidity >=0.4.16 <0.9.0; // solidity\r\n\r\ncontract StaffStorage {\r\n    //  username, age\r\n    uint public age;\r\n    string public name;\r\n\r\n    // storage gas\r\n\r\n    // memory gas\r\n    // public,private,internal,external \r\n    function setData(string memory _name, uint _age) public {\r\n        name = _name;\r\n        age = _age;\r\n    }\r\n\r\n    // pure \r\n    function test(uint x, uint y) public pure returns (uint) {\r\n        return x + y;\r\n    }\r\n\r\n    // gas\r\n    // view \r\n    function getData() public view returns (string memory, uint) {\r\n        return (name, age);\r\n    }\r\n}\r\n",
  "sourcePath": "C:\\Users\\CelineZ\\OneDrive - M. Moser Associates Limited\\Desktop\\Other\\Tech\\web3\\web3\\code\\contracts\\StaffStorage.sol",
  "compiler": {
    "name": "solc",
    "version": "0.8.19+commit.7dd6d404.Emscripten.clang"
  },
  "schemaVersion": "3.4.13",
  "updatedAt": "2023-05-25T08:44:33.564Z",
  "devdoc": {
    "kind": "dev",
    "methods": {},
    "version": 1
  },
  "userdoc": {
    "kind": "user",
    "methods": {},
    "version": 1
  }
}