{
  "contractName": "StaffListStorage",
  "abi": [
    {
      "inputs": [
        {
          "internalType": "uint256",
          "name": "",
          "type": "uint256"
        }
      ],
      "name": "StaffList",
      "outputs": [
        {
          "internalType": "uint256",
          "name": "id",
          "type": "uint256"
        },
        {
          "internalType": "string",
          "name": "name",
          "type": "string"
        },
        {
          "internalType": "uint256",
          "name": "age",
          "type": "uint256"
        },
        {
          "internalType": "address",
          "name": "account",
          "type": "address"
        }
      ],
      "stateMutability": "view",
      "type": "function"
    },
    {
      "inputs": [
        {
          "internalType": "string",
          "name": "_name",
          "type": "string"
        },
        {
          "internalType": "uint256",
          "name": "_age",
          "type": "uint256"
        }
      ],
      "name": "addList",
      "outputs": [
        {
          "internalType": "uint256",
          "name": "",
          "type": "uint256"
        }
      ],
      "stateMutability": "nonpayable",
      "type": "function"
    },
    {
      "inputs": [],
      "name": "getList",
      "outputs": [
        {
          "components": [
            {
              "internalType": "uint256",
              "name": "id",
              "type": "uint256"
            },
            {
              "internalType": "string",
              "name": "name",
              "type": "string"
            },
            {
              "internalType": "uint256",
              "name": "age",
              "type": "uint256"
            },
            {
              "internalType": "address",
              "name": "account",
              "type": "address"
            }
          ],
          "internalType": "struct StaffListStorage.Staff[]",
          "name": "",
          "type": "tuple[]"
        }
      ],
      "stateMutability": "view",
      "type": "function"
    }
  ],
  "bytecode": "0x608060405234801561001057600080fd5b50610c85806100206000396000f3fe608060405234801561001057600080fd5b50600436106100415760003560e01c80635a50e382146100465780636b29d35f14610079578063942b765a146100a9575b600080fd5b610060600480360381019061005b919061045a565b6100c7565b6040516100709493929190610567565b60405180910390f35b610093600480360381019061008e91906106e8565b6101af565b6040516100a09190610744565b60405180910390f35b6100b16102b0565b6040516100be91906108ec565b60405180910390f35b600081815481106100d757600080fd5b90600052602060002090600402016000915090508060000154908060010180546101009061093d565b80601f016020809104026020016040519081016040528092919081815260200182805461012c9061093d565b80156101795780601f1061014e57610100808354040283529160200191610179565b820191906000526020600020905b81548152906001019060200180831161015c57829003601f168201915b5050505050908060020154908060030160009054906101000a900473ffffffffffffffffffffffffffffffffffffffff16905084565b600080600080549050905060006001826101c9919061099d565b9050600060405180608001604052808381526020018781526020018681526020013373ffffffffffffffffffffffffffffffffffffffff16815250908060018154018082558091505060019003906000526020600020906004020160009091909190915060008201518160000155602082015181600101908161024c9190610b7d565b506040820151816002015560608201518160030160006101000a81548173ffffffffffffffffffffffffffffffffffffffff021916908373ffffffffffffffffffffffffffffffffffffffff16021790555050506000805490509250505092915050565b6060600080805480602002602001604051908101604052809291908181526020016000905b828210156104035783829060005260206000209060040201604051806080016040529081600082015481526020016001820180546103129061093d565b80601f016020809104026020016040519081016040528092919081815260200182805461033e9061093d565b801561038b5780601f106103605761010080835404028352916020019161038b565b820191906000526020600020905b81548152906001019060200180831161036e57829003601f168201915b50505050508152602001600282015481526020016003820160009054906101000a900473ffffffffffffffffffffffffffffffffffffffff1673ffffffffffffffffffffffffffffffffffffffff1673ffffffffffffffffffffffffffffffffffffffff1681525050815260200190600101906102d5565b5050505090508091505090565b6000604051905090565b600080fd5b600080fd5b6000819050919050565b61043781610424565b811461044257600080fd5b50565b6000813590506104548161042e565b92915050565b6000602082840312156104705761046f61041a565b5b600061047e84828501610445565b91505092915050565b61049081610424565b82525050565b600081519050919050565b600082825260208201905092915050565b60005b838110156104d05780820151818401526020810190506104b5565b60008484015250505050565b6000601f19601f8301169050919050565b60006104f882610496565b61050281856104a1565b93506105128185602086016104b2565b61051b816104dc565b840191505092915050565b600073ffffffffffffffffffffffffffffffffffffffff82169050919050565b600061055182610526565b9050919050565b61056181610546565b82525050565b600060808201905061057c6000830187610487565b818103602083015261058e81866104ed565b905061059d6040830185610487565b6105aa6060830184610558565b95945050505050565b600080fd5b600080fd5b7f4e487b7100000000000000000000000000000000000000000000000000000000600052604160045260246000fd5b6105f5826104dc565b810181811067ffffffffffffffff82111715610614576106136105bd565b5b80604052505050565b6000610627610410565b905061063382826105ec565b919050565b600067ffffffffffffffff821115610653576106526105bd565b5b61065c826104dc565b9050602081019050919050565b82818337600083830152505050565b600061068b61068684610638565b61061d565b9050828152602081018484840111156106a7576106a66105b8565b5b6106b2848285610669565b509392505050565b600082601f8301126106cf576106ce6105b3565b5b81356106df848260208601610678565b91505092915050565b600080604083850312156106ff576106fe61041a565b5b600083013567ffffffffffffffff81111561071d5761071c61041f565b5b610729858286016106ba565b925050602061073a85828601610445565b9150509250929050565b60006020820190506107596000830184610487565b92915050565b600081519050919050565b600082825260208201905092915050565b6000819050602082019050919050565b61079481610424565b82525050565b600082825260208201905092915050565b60006107b682610496565b6107c0818561079a565b93506107d08185602086016104b2565b6107d9816104dc565b840191505092915050565b6107ed81610546565b82525050565b600060808301600083015161080b600086018261078b565b506020830151848203602086015261082382826107ab565b9150506040830151610838604086018261078b565b50606083015161084b60608601826107e4565b508091505092915050565b600061086283836107f3565b905092915050565b6000602082019050919050565b60006108828261075f565b61088c818561076a565b93508360208202850161089e8561077b565b8060005b858110156108da57848403895281516108bb8582610856565b94506108c68361086a565b925060208a019950506001810190506108a2565b50829750879550505050505092915050565b600060208201905081810360008301526109068184610877565b905092915050565b7f4e487b7100000000000000000000000000000000000000000000000000000000600052602260045260246000fd5b6000600282049050600182168061095557607f821691505b6020821081036109685761096761090e565b5b50919050565b7f4e487b7100000000000000000000000000000000000000000000000000000000600052601160045260246000fd5b60006109a882610424565b91506109b383610424565b92508282019050808211156109cb576109ca61096e565b5b92915050565b60008190508160005260206000209050919050565b60006020601f8301049050919050565b600082821b905092915050565b600060088302610a337fffffffffffffffffffffffffffffffffffffffffffffffffffffffffffffffff826109f6565b610a3d86836109f6565b95508019841693508086168417925050509392505050565b6000819050919050565b6000610a7a610a75610a7084610424565b610a55565b610424565b9050919050565b6000819050919050565b610a9483610a5f565b610aa8610aa082610a81565b848454610a03565b825550505050565b600090565b610abd610ab0565b610ac8818484610a8b565b505050565b5b81811015610aec57610ae1600082610ab5565b600181019050610ace565b5050565b601f821115610b3157610b02816109d1565b610b0b846109e6565b81016020851015610b1a578190505b610b2e610b26856109e6565b830182610acd565b50505b505050565b600082821c905092915050565b6000610b5460001984600802610b36565b1980831691505092915050565b6000610b6d8383610b43565b9150826002028217905092915050565b610b8682610496565b67ffffffffffffffff811115610b9f57610b9e6105bd565b5b610ba9825461093d565b610bb4828285610af0565b600060209050601f831160018114610be75760008415610bd5578287015190505b610bdf8582610b61565b865550610c47565b601f198416610bf5866109d1565b60005b82811015610c1d57848901518255600182019150602085019450602081019050610bf8565b86831015610c3a5784890151610c36601f891682610b43565b8355505b6001600288020188555050505b50505050505056fea26469706673582212207a4709dce1d4ea1fa892fa8773bce4a127e049e9bb35b0d1d0f590a065d4913964736f6c63430008130033",
  "immutableReferences": {},
  "source": "// \r\n// SPDX-License-Identifier: GPL-3.0\r\n// MIT ... c, python, typescript\r\npragma solidity >=0.4.16 <0.9.0; // solidity\r\n\r\ncontract StaffListStorage {\r\n    // c\r\n    struct Staff {\r\n        uint id;\r\n        string name;\r\n        uint age;\r\n        address account;\r\n    }\r\n\r\n    // []\r\n    Staff[] public StaffList; // getter()\r\n\r\n    // memory gas\r\n    // public,private,internal,external \r\n    function addList(string memory _name, uint _age) public returns (uint) {\r\n        uint count = StaffList.length;\r\n        uint index = count + 1;\r\n        StaffList.push(Staff(index, _name, _age, msg.sender));\r\n        return StaffList.length;\r\n    }\r\n\r\n    // view \r\n    function getList() public view returns (Staff[] memory) {\r\n        Staff[] memory list = StaffList;\r\n        return list;\r\n    }\r\n}\r\n",
  "sourcePath": "C:\\Users\\CelineZ\\OneDrive - M. Moser Associates Limited\\Desktop\\Other\\Tech\\web3\\web3\\code\\contracts\\StaffListStorage.sol",
  "compiler": {
    "name": "solc",
    "version": "0.8.19+commit.7dd6d404.Emscripten.clang"
  },
  "schemaVersion": "3.4.13",
  "updatedAt": "2023-05-25T08:44:33.547Z",
  "devdoc": {
    "kind": "dev",
    "methods": {},
    "version": 1
  },
  "userdoc": {
    "kind": "user",
    "methods": {},
    "version": 1
  }
}